:100000000C9446000C9465000C9465000C946500FB
:100010000C9465000C9465000C9465000C946500CC
:100020000C9465000C9465000C9465000C946500BC
:100030000C9465000C9465000C9465000C946500AC
:100040000C9465000C9465000C9465000C9465009C
:100050000C9465000C9465000C9465000C9465008C
:100060000C9465000C9465000C9465000C9465007C
:100070000C9465000C9465000C9465000C9465006C
:100080000C9465000C9465000C94650011241FBE4F
:10009000CFEFD0E4DEBFCDBF11E0A0E0B1E0E4EAF5
:1000A000F1E000E00BBF02C007900D92AE30B10747
:1000B000D9F711E0AEE0B1E001C01D92A031B10767
:1000C000E1F70E9478000C94D0000C940000CF93CC
:1000D000C82F8A3019F48DE00E9467009091C0000B
:1000E00095FFFCCFC093C60080E090E0CF910895CB
:1000F00011B88FEF82B984B915B810920F01109220
:100100000E0190E080B1809520910E0130910F0199
:100110002130310599F020F022303105E9F02AC074
:10012000813039F421E030E030930F0120930E014B
:1001300025C010920F0110920E0120C0813039F4B9
:1001400022E030E030930F0120930E0117C010928F
:100150000F0110920E0112C0813039F422E030E01C
:1001600030930F0120930E0109C010920F011092DD
:100170000E0104C010920F0110920E0120910E0189
:1001800030910F012130310549F4992321F090324B
:1001900021F0990F03C091E001C091E095B9B2CF71
:0401A000F894FFCF01
:0E01A4000000000200000000670000000000E4
:00000001FF
